{
  "_format": "hh-sol-artifact-1",
  "contractName": "Todo",
  "sourceName": "contracts/todo.sol",
  "abi": [
    {
      "inputs": [],
      "name": "getTodos",
      "outputs": [
        {
          "components": [
            {
              "internalType": "address payable",
              "name": "user",
              "type": "address"
            },
            {
              "internalType": "string",
              "name": "heading",
              "type": "string"
            },
            {
              "internalType": "string",
              "name": "desc",
              "type": "string"
            },
            {
              "internalType": "enum Todo.status",
              "name": "s",
              "type": "uint8"
            }
          ],
          "internalType": "struct Todo.todo[]",
          "name": "",
          "type": "tuple[]"
        }
      ],
      "stateMutability": "view",
      "type": "function"
    },
    {
      "inputs": [
        {
          "internalType": "string",
          "name": "_heading",
          "type": "string"
        },
        {
          "internalType": "string",
          "name": "_desc",
          "type": "string"
        }
      ],
      "name": "setTodo",
      "outputs": [],
      "stateMutability": "nonpayable",
      "type": "function"
    },
    {
      "inputs": [
        {
          "internalType": "uint256",
          "name": "",
          "type": "uint256"
        }
      ],
      "name": "todos",
      "outputs": [
        {
          "internalType": "address payable",
          "name": "user",
          "type": "address"
        },
        {
          "internalType": "string",
          "name": "heading",
          "type": "string"
        },
        {
          "internalType": "string",
          "name": "desc",
          "type": "string"
        },
        {
          "internalType": "enum Todo.status",
          "name": "s",
          "type": "uint8"
        }
      ],
      "stateMutability": "view",
      "type": "function"
    }
  ],
  "bytecode": "0x608060405234801561001057600080fd5b50610d6b806100206000396000f3fe608060405234801561001057600080fd5b50600436106100415760003560e01c80639903d4a014610046578063bc8bc2b414610062578063c33926cb14610095575b600080fd5b610060600480360381019061005b91906107ff565b6100b3565b005b61007c6004803603810190610077919061086b565b61028c565b60405161008c9493929190610a35565b60405180910390f35b61009d610409565b6040516100aa9190610a88565b60405180910390f35b6100bb610669565b33816000019073ffffffffffffffffffffffffffffffffffffffff16908173ffffffffffffffffffffffffffffffffffffffff1681525050828160200181905250818160400181905250600081606001906001811115610144577f4e487b7100000000000000000000000000000000000000000000000000000000600052602160045260246000fd5b9081600181111561017e577f4e487b7100000000000000000000000000000000000000000000000000000000600052602160045260246000fd5b81525050600081908060018154018082558091505060019003906000526020600020906004020160009091909190915060008201518160000160006101000a81548173ffffffffffffffffffffffffffffffffffffffff021916908373ffffffffffffffffffffffffffffffffffffffff16021790555060208201518160010190805190602001906102119291906106df565b50604082015181600201908051906020019061022e9291906106df565b5060608201518160030160006101000a81548160ff02191690836001811115610280577f4e487b7100000000000000000000000000000000000000000000000000000000600052602160045260246000fd5b02179055505050505050565b6000818154811061029c57600080fd5b90600052602060002090600402016000915090508060000160009054906101000a900473ffffffffffffffffffffffffffffffffffffffff16908060010180546102e590610c09565b80601f016020809104026020016040519081016040528092919081815260200182805461031190610c09565b801561035e5780601f106103335761010080835404028352916020019161035e565b820191906000526020600020905b81548152906001019060200180831161034157829003601f168201915b50505050509080600201805461037390610c09565b80601f016020809104026020016040519081016040528092919081815260200182805461039f90610c09565b80156103ec5780601f106103c1576101008083540402835291602001916103ec565b820191906000526020600020905b8154815290600101906020018083116103cf57829003601f168201915b5050505050908060030160009054906101000a900460ff16905084565b60606000805480602002602001604051908101604052809291908181526020016000905b8282101561066057838290600052602060002090600402016040518060800160405290816000820160009054906101000a900473ffffffffffffffffffffffffffffffffffffffff1673ffffffffffffffffffffffffffffffffffffffff1673ffffffffffffffffffffffffffffffffffffffff1681526020016001820180546104b690610c09565b80601f01602080910402602001604051908101604052809291908181526020018280546104e290610c09565b801561052f5780601f106105045761010080835404028352916020019161052f565b820191906000526020600020905b81548152906001019060200180831161051257829003601f168201915b5050505050815260200160028201805461054890610c09565b80601f016020809104026020016040519081016040528092919081815260200182805461057490610c09565b80156105c15780601f10610596576101008083540402835291602001916105c1565b820191906000526020600020905b8154815290600101906020018083116105a457829003601f168201915b505050505081526020016003820160009054906101000a900460ff166001811115610615577f4e487b7100000000000000000000000000000000000000000000000000000000600052602160045260246000fd5b600181111561064d577f4e487b7100000000000000000000000000000000000000000000000000000000600052602160045260246000fd5b815250508152602001906001019061042d565b50505050905090565b6040518060800160405280600073ffffffffffffffffffffffffffffffffffffffff1681526020016060815260200160608152602001600060018111156106d9577f4e487b7100000000000000000000000000000000000000000000000000000000600052602160045260246000fd5b81525090565b8280546106eb90610c09565b90600052602060002090601f01602090048101928261070d5760008555610754565b82601f1061072657805160ff1916838001178555610754565b82800160010185558215610754579182015b82811115610753578251825591602001919060010190610738565b5b5090506107619190610765565b5090565b5b8082111561077e576000816000905550600101610766565b5090565b600061079561079084610acf565b610aaa565b9050828152602081018484840111156107ad57600080fd5b6107b8848285610bc7565b509392505050565b600082601f8301126107d157600080fd5b81356107e1848260208601610782565b91505092915050565b6000813590506107f981610d1e565b92915050565b6000806040838503121561081257600080fd5b600083013567ffffffffffffffff81111561082c57600080fd5b610838858286016107c0565b925050602083013567ffffffffffffffff81111561085557600080fd5b610861858286016107c0565b9150509250929050565b60006020828403121561087d57600080fd5b600061088b848285016107ea565b91505092915050565b60006108a083836109cb565b905092915050565b6108b181610b66565b82525050565b6108c081610b66565b82525050565b60006108d182610b10565b6108db8185610b33565b9350836020820285016108ed85610b00565b8060005b85811015610929578484038952815161090a8582610894565b945061091583610b26565b925060208a019950506001810190506108f1565b50829750879550505050505092915050565b61094481610bb5565b82525050565b61095381610bb5565b82525050565b600061096482610b1b565b61096e8185610b44565b935061097e818560208601610bd6565b61098781610cf9565b840191505092915050565b600061099d82610b1b565b6109a78185610b55565b93506109b7818560208601610bd6565b6109c081610cf9565b840191505092915050565b60006080830160008301516109e360008601826108a8565b50602083015184820360208601526109fb8282610959565b91505060408301518482036040860152610a158282610959565b9150506060830151610a2a606086018261093b565b508091505092915050565b6000608082019050610a4a60008301876108b7565b8181036020830152610a5c8186610992565b90508181036040830152610a708185610992565b9050610a7f606083018461094a565b95945050505050565b60006020820190508181036000830152610aa281846108c6565b905092915050565b6000610ab4610ac5565b9050610ac08282610c3b565b919050565b6000604051905090565b600067ffffffffffffffff821115610aea57610ae9610cca565b5b610af382610cf9565b9050602081019050919050565b6000819050602082019050919050565b600081519050919050565b600081519050919050565b6000602082019050919050565b600082825260208201905092915050565b600082825260208201905092915050565b600082825260208201905092915050565b6000610b7182610b8b565b9050919050565b6000819050610b8682610d0a565b919050565b600073ffffffffffffffffffffffffffffffffffffffff82169050919050565b6000819050919050565b6000610bc082610b78565b9050919050565b82818337600083830152505050565b60005b83811015610bf4578082015181840152602081019050610bd9565b83811115610c03576000848401525b50505050565b60006002820490506001821680610c2157607f821691505b60208210811415610c3557610c34610c9b565b5b50919050565b610c4482610cf9565b810181811067ffffffffffffffff82111715610c6357610c62610cca565b5b80604052505050565b7f4e487b7100000000000000000000000000000000000000000000000000000000600052602160045260246000fd5b7f4e487b7100000000000000000000000000000000000000000000000000000000600052602260045260246000fd5b7f4e487b7100000000000000000000000000000000000000000000000000000000600052604160045260246000fd5b6000601f19601f8301169050919050565b60028110610d1b57610d1a610c6c565b5b50565b610d2781610bab565b8114610d3257600080fd5b5056fea26469706673582212201f249cb2b08cf55cff1d3e6c3debb99283168ee4cd88011d6fc9b1cb05698b2e64736f6c63430008040033",
  "linkReferences": {},
  "deployedLinkReferences": {}
}